:1000000014C01FC235C22AC029C00CC227C026C0D6
:1000100025C024C023C022C021C020C01FC01EC0D4
:100020001DC01CC01BC01AC019C011241FBECFEDBB
:10003000CDBF10E0A0E6B0E0E4ECF6E002C0059031
:100040000D92AC36B107D9F720E0ACE6B0E001C0C4
:100050001D92A337B207E1F7C1D232C3D1CFCF93FC
:10006000DF9380E09ED2EC0182E09BD290937200FD
:1000700080937100CE0189D18091710090917200BE
:1000800080959095DF91CF9180C187E79CEE90930A
:1000900072008093710066E970E080E06CD260913C
:1000A00071007091720082E066D262E370E084E0D9
:1000B00062D26FE070E086E05ED26BE78FE751C2FC
:1000C00083E690E057C187E690E054C120916C0030
:1000D00010926C0091E02D3009F090E081E02A3020
:1000E00009F080E0982B8091600031E0803209F0C7
:1000F00030E0992309F454C0311132C1803209F43F
:100100004FC08536E9F150F4823679F18436B1F08A
:100110008534F1F580916F003AD238C0843741F0D0
:10012000873741F18237A1F580916F00CFD12EC082
:1001300060916F007091700080E015C080916F0039
:100140009091700080959095803328EF920710F081
:100150008FE298EF9093720080937100609171002C
:100160007091720082E007D213C080916F0080937B
:100170006E000EC060916E0080916F00B4D108C017
:1001800060916E0080916F00ECD102C090E0FDD0D4
:100190001092700010926F0080E28093600090CF08
:1001A00091E02A3709F090E0522F5B7F61E027371A
:1001B00009F060E0462F492B61E0253409F060E04A
:1001C000642B41E07CE9720F723008F040E0462B6E
:1001D00071E0583409F070E0742B61E0422F4F7EDB
:1001E000423609F060E0672B41E0503709F040E00B
:1001F000462B79F0332369F020936000992309F4AA
:10020000AFC08CED9FEF9DBD8CBD80E28093600000
:100210000895982F9B7F51E0853409F050E031E03C
:10022000873709F030E0352B51E04CE9480F423078
:1002300008F050E0532B41E0983409F040E0452BA2
:1002400031E0582F5F7E523609F030E0342B19F43C
:10025000903709F081C0803761F580E280936000BB
:100260002233D1F050F4203399F0213309F077C0D4
:10027000B99886B38695817014C02333A1F02633D4
:1002800009F06DC08E9880B386FB882780F909C07D
:10029000B89886B3817005C0BA9886B382FB882768
:1002A00080F9805D5EC0BB9886B383FB882780F9A8
:1002B000F8CF8834F9F480E2809360002233A1F013
:1002C00040F4203371F0213309F049C0B99AC19A42
:1002D0000895233361F0263309F041C08E9A969A2F
:1002E0000895B89AC09A0895BA9AC29A0895BB9A86
:1002F000C39A08958C34E9F480E28093600022333D
:1003000091F038F4203361F0213349F5B99AC1985E
:100310000895233359F0263311F58E9A969808954F
:10032000B89AC0980895BA9AC2980895BB9AC3988B
:10033000089580ED820F8A3078F480916F0090915B
:1003400070006AE070E097D1820F911DC097909382
:10035000700080936F00089580E280936000B3CEB8
:1003600008958CB95E9BFECF5E9A08958AE0F9DF0E
:100370008DE0F7CFCF93DF93EC018991F2DF888195
:100380008111FBCFDF91CF91F1CF0F931F93CF93CB
:10039000DF93CDB7DD27C350CDBF9C0160E177E28D
:1003A0007BD1E62F972F862F60EF78ED64D1280F51
:1003B000391FC90168EE73E06FD1162F972F862F72
:1003C00068EE73E058D1281B390BC90164E670E070
:1003D00063D1AB01CB01992764E670E04CD1B90140
:1003E000681B790BCB016AE070E056D1082F80E3DF
:1003F0008E0F49835A836B83B4DF80E3810FB1DFB3
:10040000498180E3840FADDF6B8180E3860FA9DF34
:1004100080E3800FA6DFCD5FCDBFDF91CF911F912D
:100420000F91A4CF1F920F920FB60F9211248F93AA
:1004300081E080936D008F910F900FBE0F901F9001
:1004400018951F920F920FB60F9211248F939F93BE
:1004500080917100909172009DBD8CBD10926D00D5
:100460001BBE9F918F910F900FBE0F901F901895FC
:100470001F920F920FB60F9211248F939F9380912A
:100480007100909172009DBD8CBD10926D001BBEDD
:100490009F918F910F900FBE0F901F9018951F92F4
:1004A0000F920FB60F9211248F939F93809171003A
:1004B000909172009DBD8CBD8CB180936C009F911A
:1004C0008F910F900FBE0F901F901895CF93C82F4C
:1004D00088B318BA8BE078D08C2F76D08C2F74D05C
:1004E000C49ACF9108951F93CF93DF931F92CDB7F6
:1004F000DD27182F88B318BA8AE0698365D0812F69
:1005000063D06981862F60D0C49A0F90DF91CF911C
:100510001F91089580E03BD0682F81E2E4DF81E005
:1005200036D0682F80E2DFDF84E031D0682F84E2AC
:10053000DADF85E02CD0682F83E2D5DF86E027D094
:10054000682F86E2D0DF87E022D0682F85E2CBDFFC
:100550006FEF87E2C8DF60E98AE2C5DF6AE08DE21B
:10056000C2CFF894E199FECF1CBA8EBB6DBBE29A64
:10057000E19A78940895CF93DF93C82FD62F672FF1
:10058000F0DF6D2F81E08C0FDF91CF91EACFF894EF
:10059000E199FECF8EBB8CB38F5F8CBB78948DB30B
:1005A00008951F93CF93DF93182FF1DFC82FD0E06A
:1005B000DC2FCC2781E0810FEADF9E01282BC901C7
:1005C000DF91CF911F9108958FB98BE1769902C089
:1005D0008DB9FCCF80E48EB98FB1089583E08ABBDA
:1005E0008FED87BB82E781BB1BBA80E188BB85E6C4
:1005F00082BB15BE1BBE8AE18DB980E48EB912B8EC
:100600008CE089B982E08BB988E98AB986E083B940
:1006100085B7806585BF8FE7BADF8B3709F035DD99
:100620001EDD78DF85E08EBD8091710090917200B3
:100630009DBD8CBD80E889BF949A789441DDC0EC63
:1006400080916D00813089F481E690E093DE62DF75
:10065000CBBF82B312BA85B7806285BF889585B754
:100660008F7D85BFFCDC2CDD949A80916C00882303
:1006700039F32CDDE5CF0024552704C0080E591F9F
:10068000880F991F009729F076956795B8F3710543
:10069000B9F7802D952F0895AA1BBB1B51E107C008
:1006A000AA1FBB1FA617B70710F0A61BB70B881F02
:1006B000991F5A95A9F780959095BC01CD01089591
:0406C000F894FFCFDC
:0C06C400207A003A2D29003A2D28000071
:00000001FF
