:1000000014C001C215C22AC029C0F7C127C033C21B
:1000100025C024C023C022C021C020C01FC01EC0D4
:100020001DC01CC01BC01AC019C011241FBECFEDBB
:10003000CDBF10E0A0E6B0E0ECE7F6E002C005902E
:100040000D92AC36B107D9F720E0ACE6B0E001C0C4
:100050001D92A337B207E1F79DD20EC3D1CFCF9344
:10006000DF9380E07AD2D82FC92F82E076D29093A6
:100070007200809371008D2F9C2F8CD18091710024
:100080009091720080959095DF91CF9183C187E721
:100090009CEE909372008093710066E970E080E0BE
:1000A00046D2609171007091720082E040D262E3AA
:1000B00070E084E03CD26FE070E086E038D26BE71D
:1000C0008FE72BC283E690E05AC187E690E057C1E4
:1000D00020916C0010926C0091E02A3009F090E0C1
:1000E00081E02D3009F080E0982B8091600031E0B4
:1000F000803209F030E0992311F0311136C180329D
:1001000009F455C0992309F452C0853609F445C055
:1001100078F48236B9F18436F1F0853409F443C0BD
:100120001092700010926F0080E280936000CACF3E
:10013000843751F0873759F1823791F780916F00FA
:10014000A8D190E027D1ECCF60916F007091700042
:1001500080E0EDD1E5CF80916F00909170008095A7
:100160009095803328EF920750F49093720080931B
:100170007100609171007091720082E0EACF8FE2AD
:1001800098EFF3CF80916F0080936E00C9CF60919C
:100190006E0080916F008AD1C3CF60916E00809114
:1001A0006F00BBD1BDCF80916F00CDD1CACF522F90
:1001B0005B7F91E02A3709F090E041E0273709F0B2
:1001C00040E0942B41E0253409F040E0942B61E0BD
:1001D0004CE9420F423008F060E0962B61E0422F7C
:1001E0004F7E423609F060E0962B41E0503709F02F
:1001F00040E0942B41E0583409F040E0942B79F032
:10020000332369F0209360002A3709F0AEC08CEDEB
:100210009FEF9DBD8CBD80E2809360000895482FC4
:100220004B7F91E0873709F090E031E0853409F0A9
:1002300030E0932B51E03CE9380F323008F050E0C9
:10024000952B31E0403709F030E0932B31E0483412
:1002500009F030E0932B29F4982F9F7E923609F015
:1002600080C0803759F580E2809360002233D1F05E
:1002700028F4203369F0213381F027CF2333C1F0F4
:100280002633D9F78E9880B386FB882780F903C080
:10029000B89886B38170805D69C0B99886B3869539
:1002A0008170F9CFBA9886B382FB882780F9F3CFA3
:1002B000BB9886B383FB882780F9EDCF8834E9F4B7
:1002C00080E280936000223391F038F4203361F0B3
:1002D000213399F6B99AC19A0895233359F02633F8
:1002E00061F68E9A969A0895B89AC09A0895BA9A25
:1002F000C29A0895BB9AC39A08958C34F9F480E2A7
:10030000809360002233A1F040F4203371F0213358
:1003100009F0B3CFB99AC1980895233361F0263319
:1003200009F0ABCF8E9A96980895B89AC098089520
:10033000BA9AC2980895BB9AC398089580ED820F27
:100340008A3078F480916F00909170006AE070E0DC
:100350006ED1820F911DC0979093700080936F00B3
:10036000089580E28093600088CF08958CB95E9BE9
:10037000FECF5E9A08958AE0F9DF8DE0F7CFCF9344
:10038000DF93EC018991F2DF88818111FBCFDF914E
:10039000CF91F1CF0F931F93CF93DF939C0160E137
:1003A00077E256D1462F972F862F60E177E23FD133
:1003B000B901681B790BCB0168EE73E049D1062FB8
:1003C00064E670E045D1162F6AE070E041D1D62F87
:1003D000C82F80E3840FCADF80E3800FC7DF80E38C
:1003E000810FC4DF80E38D0FC1DF80E38C0FBEDFA0
:1003F000DF91CF911F910F91BECF8F9381E08093BA
:100400006D008F9118951F921FB61F9211248F9324
:100410009F9380917100909172009DBD8CBD109250
:100420006D001BBE9F918F911F901FBE1F9018954E
:100430001F920F920FB60F9211242F933F934F9359
:100440005F936F937F938F939F93AF93BF93EF933C
:10045000FF93D9DFFF91EF91BF91AF919F918F9162
:100460007F916F915F914F913F912F910F900FBEB0
:100470000F901F9018958F939F938091710090918A
:1004800072009DBD8CBD8CB180936C009F918F914B
:100490001895CF93C82F88B318BA8BE071D08C2FE2
:1004A0006FD08C2F6DD0C49ACF910895CF93DF93E6
:1004B000D82FC62F88B318BA8AE062D08D2F60D0AB
:1004C0008C2F5ED0C49ADF91CF91089580E03BD00D
:1004D000682F81E2EBDF81E036D0682F80E2E6DF33
:1004E00084E031D0682F84E2E1DF85E02CD0682FF2
:1004F00083E2DCDF86E027D0682F86E2D7DF87E063
:1005000022D0682F85E2D2DF6FEF87E2CFDF60E98C
:100510008AE2CCDF6AE08DE2C9CFF894E199FECFA0
:100520001CBA8EBB6DBBE29AE19A78940895CF9382
:10053000DF93C82FD62F672FF0DF6D2F81E08C0F50
:10054000DF91CF91EACFF894E199FECF8EBB8CB3C7
:100550008F5F8CBB78948DB308951F93CF93DF93F7
:10056000182FF1DFC82FD0E0DC2FCC2781E0810FDE
:10057000EADF9E01282BC901DF91CF911F910895D9
:100580008FB98BE1769B04C080E48EB98FB108955A
:100590008DB9F8CF83E08ABB8FED87BB82E781BB43
:1005A0001BBA80E188BB85E682BB15BE1BBE8AE113
:1005B0008DB980E48EB912B88CE089B982E08BB92C
:1005C00088E98AB986E083B985B7806585BF8FE7FA
:1005D000BADF8B3709F05BDD42DD78DF85E08EBD69
:1005E00080917100909172009DBD8CBD80E889BFA3
:1005F000949A789467DDC0EC80916D00813089F425
:1006000081E690E0BCDE62DFCBBF82B312BA85B771
:10061000806285BF889585B78F7D85BF20DD52DDDF
:10062000949A80916C00882339F352DDE5CF002441
:10063000552704C0080E591F880F991F009729F0ED
:1006400076956795B8F37105B9F7802D952F0895C4
:10065000AA1BBB1B51E107C0AA1FBB1FA617B707E8
:1006600010F0A61BB70B881F991F5A95A9F7809504
:0C0670009095BC01CD010895F894FFCFD7
:0C067C00207A003A2D29003A2D280000B9
:00000001FF
